:100000000C942A000C943C000C943C000C943C0092
:100010000C943C000C943C000C943C000C943C0070
:100020000C943C000C943C000C943C000C943C0060
:100030000C943C000C943C000C94B8010C943C00D3
:100040000C943C000C943C000C943C000C943C0040
:100050000C943C0011241FBECFE5D4E0DEBFCDBF21
:1000600020E0A0E6B0E001C01D92A836B207E1F79B
:100070000E94B3010C940E020C9400008AB3807F9E
:100080008ABB8BE886B980E687B910BE87B38FEF4D
:1000900087BB81B3806381BB8FB580628FBD8EB516
:1000A00081618EBD08952091600030916100809142
:1000B000620090916300821793075CF5409166009F
:1000C000509167004217530724F5609164007091C6
:1000D000650062177307ECF4481759070CF0C4C0A9
:1000E000681779070CF0C6C0641775070CF480C058
:1000F0009EE485E0ACC0681779070CF47CC09EEAEA
:1001000085E0A5C0481759070CF478C090E685E053
:100110009EC0281739070CF001C14091660050912C
:100120006700481759070CF0F0C0609164007091A7
:100130006500681779070CF0AFC0421753070CF041
:100140009FC0621773070CF0A1C0641775070CF409
:1001500058C09DE585E07BC0621773070CF454C05E
:100160009CED85E074C0421753070CF450C09FE823
:1001700085E06DC0241735070CF56091640070911F
:10018000650064177507D4F4281739070CF089C087
:10019000681779070CF08CC062177307DCF19CE0DC
:1001A00086E055C068177907C4F19DEE85E04FC021
:1001B00028173907ACF19FED85E049C028173907AA
:1001C0000CF07DC0481759070CF080C04217530748
:1001D00054F191E785E03BC0481759073CF192E59F
:1001E00085E035C02817390724F192E985E02FC052
:1001F0009BE985E02CC09BEC85E029C090E385E07D
:1002000026C09BEA85E023C09AEE85E020C09FE4EB
:1002100085E01DC09AE186E01AC09BE086E017C029
:100220009FEE85E014C092E385E011C092E285E084
:100230000EC091EA85E00BC09EEA85E008C09CED07
:1002400085E005C09DEE85E002C092E585E087BDB2
:1002500096BD84EF91E099BD88BD8FE097E201974C
:10026000F1F700C00000089584179507B4F190E6F7
:1002700085E0EDCF84179507BCF190E385E0E7CFEB
:1002800024173507B4F19FE885E0E1CF241735073F
:10029000BCF19FE485E0DBCF841795070CF446C0E2
:1002A00095CF821793070CF446C09FED85E0CFCF22
:1002B000821793070CF446C09FEE85E0C8CF8217E3
:1002C00093070CF444C092E985E0C1CF82179307ED
:1002D0000CF444C091EA85E0BACF641775070CF4BA
:1002E0000ACF90E685E0B3CF641775070CF4A4CF6E
:1002F00009CF641775070CF42FCF9FE885E0A7CFCF
:10030000641775070CF49BCF2ECF40916600509177
:100310006700841795070CF42DCFD8CF4091660065
:10032000509167008417950754F624CF241735079A
:100330000CF423CF4BCF621773070CF433CF9FED30
:1003400085E085CF621773070CF47CCF31CF42175D
:1003500053070CF441CF92E985E079CF4217530758
:100360000CF473CF3FCF0E943E007894369AFFCFB3
:100370001F920F920FB60F9211242F933F934F931A
:100380005F936F937F938F939F93AF93BF93EF93FD
:10039000FF9387B1803649F485B190E09093670070
:1003A0008093660081E687B923C087B1813649F41E
:1003B00085B190E0909365008093640082E687B9F0
:1003C00017C087B1823649F485B190E090936100FF
:1003D0008093600083E687B90BC087B1833641F410
:1003E00085B190E0909363008093620080E687B9C6
:1003F0000E9453008FEF88BB369AFF91EF91BF9117
:10040000AF919F918F917F916F915F914F913F91AC
:100410002F910F900FBE0F901F901895F894FFCF5B
:00000001FF
