S01700004763634170706C69636174696F6E312E737265635B
S11300000C942A000C9448000C9462000C94340064
S11300100C9434000C9434000C9470000C94340050
S11300200C9434000C9434000C9434000C9434007C
S11300300C9434000C9434000C9434000C9434006C
S11300400C9434000C9434000C9434000C9434005C
S11300500C94340011241FBECFE5D4E0DEBFCDBF25
S11300600E9436000C9485000C9400008A988B98AA
S1130070BA98B89A1FBC80E189BF88E08EBD8BB75F
S1130080806C8BBF85B7856085BF7894C09AFFCF9D
S11300901F920F920FB60F9211248F93B29B07C039
S11300A083E08BBD81ED8ABD8DE08EBD05C083E10B
S11300B08BBD8ABD8DE08EBD8F910F900FBE0F90CA
S11300C01F9018951F920F920FB60F9211248F93C1
S11300D081E088BB8F910F900FBE0F901F901895F1
S11300E01F920F920FB60F9211248F939F9398B380
S11300F081E0892788BB1EBC88E088BF9F918F91CF
S11101000F900FBE0F901F901895F894FFCF2C
S9030000FC
